:020000021000EC
:10E0000071C0000094C0000092C0000090C00000E9
:10E010008EC000008CC000008AC0000088C00000D4
:10E0200086C0000084C0000082C0000080C00000E4
:10E030007EC000007CC000007AC0000078C00000F4
:10E0400076C0000074C0000072C0000070C0000004
:10E050006EC000006CC000006AC0000068C0000014
:10E0600066C0000064C0000062C0000060C0000024
:10E070005EC000005CC000005AC0000058C0000034
:10E0800056C0000054C0000052C0000050C0000044
:10E090004EC000004CC000004AC0000048C0000054
:10E0A00046C0000044C0000042C0000040C0000064
:10E0B0003EC000003CC000003AC0000038C0000074
:10E0C00036C0000034C0000032C0000030C0000084
:10E0D0002EC000002CC000002AC0000028C0000094
:10E0E00026C0000011241FBECFEFD1E2DEBFCDBF9E
:10E0F00012E0A0E0B2E0E4EEF4EF01E00BBF02C0FA
:10E1000007900D92AC30B107D9F713E0ACE0B2E064
:10E1100001C01D92AB33B107E1F742D60C9470FAFF
:10E1200001E20EBF0FEF0DBF11241FBE39C668CF2D
:10E130008093C6008091C00086FFFCCF8091C00014
:10E1400080648093C000089520E030E028173907EC
:10E1500049F0EFECF7E03197F1F700C000002F5FD6
:10E160003F4FF4CF0895A2E0B0E0E9EBF0EF0C945C
:10E170001DFA80E090E00E945AFA813069F581E151
:10E1800092E0AFD183E092E09BD2811120C060E0A9
:10E1900070E0CB01D7D540E051E06FEF70E08BE34A
:10E1A00092E00E9453FAAE014F5F5F4F60E071E072
:10E1B0008BE392E0DAD389819A81892B31F04BE3AA
:10E1C00052E060E070E0CB01CCD562E001C063E0DA
:10E1D00080E090E00E9462FA2296E2E00C9439FA24
:10E1E0000F931F939B01AC01E0910E02F0910F027F
:10E1F000225031094109510986819781A085B18555
:10E200000297A109B109281739074A075B0768F483
:10E21000A281B0E00E94E1F902891389248935893D
:10E22000600F711F821F931F03C060E070E0CB017D
:10E230001F910F9108950F931F93CF93DF93EC01DC
:10E24000E0910E02F0910F02198218826C817D819B
:10E250008E819F81613071058105910551F10681A3
:10E26000178120853185601771078207930708F5AC
:10E27000611571058105910539F42081233021F460
:10E280006685778580899189688779878A879B8762
:10E29000611571058105910511F0A2DF04C0668545
:10E2A0007785808991896C877D878E879F8780E0BD
:10E2B00001C081E0DF91CF911F910F9108954F929E
:10E2C0005F926F927F92AF92BF92CF92DF92EF9266
:10E2D000FF920F931F93CF93DF9300D000D0CDB761
:10E2E000DEB76B017C01A0900E02B0900F0262308D
:10E2F00071058105910508F4A0C0F501868197811B
:10E30000A085B185C816D906EA06FB0608F095C0B7
:10E310008081823009F450C0833009F468C08130B4
:10E3200009F08BC02601569447944C0C5D1C920159
:10E330003170452C55244694612C712C828593852F
:10E34000A485B585B301A201480F591F6A1F7B1F21
:10E350002F3FF1E03F0729F002E010E0CE010196E7
:10E360001AC001E010E02FEF31E0CE01019679D420
:10E37000811163C0F50142855385648575854F5FC2
:10E380005F4F6F4F7F4F440D551D661D771D20E079
:10E3900030E0CE01029665D481114FC069817A8147
:10E3A000C0FE06C0E4E076956795EA95E1F701C006
:10E3B0007F7080E090E045C096013327220F331F25
:10E3C00077276F2D5E2D4D2DF50182859385A485D0
:10E3D000B585480F591F6A1F7B1F02E010E0CE0170
:10E3E00001963FD4811129C069817A81E2CF9601DB
:10E3F0002F773327220F331F220F331FB701A601B8
:10E4000097E076956795579547959A95D1F7F501D9
:10E4100082859385A485B585480F591F6A1F7B1F88
:10E4200004E010E0CE0101961CD4811106C0698180
:10E430007A818B819C819F7004C061E070E080E0F4
:10E4400090E00F900F900F900F90DF91CF911F9160
:10E450000F91FF90EF90DF90CF90BF90AF907F90A3
:10E460006F905F904F900895A0E0B0E0E9E3F2EF85
:10E47000DEC7EC016A017B0102E010E02EEF31E023
:10E48000F0D3811125C08881998185359A4A11F58B
:10E4900026E330E0B701A601CE01E3D3811105C028
:10E4A0008881998186349144B9F002E010E022E538
:10E4B00030E0B701A601CE01D4D3811107C081E0BD
:10E4C000288139812634314441F406C081E005C0F9
:10E4D00083E003C082E001C080E0CDB7DEB7E8E0B2
:10E4E000C2C7A8E2B0E0E6E7F2EF99C75C0110927C
:10E4F0000F0210920E02009709F4DCC020D380FDB9
:10E50000DBC040E050E0BA01CE010196ADDF8130C2
:10E51000E9F400E110E02EEB31E040E050E0BA0118
:10E52000CE0101969ED3882311F081E0C6C08D8173
:10E53000811102C087E0C1C049845A846B847C8405
:10E54000B301A201CE0101968FDF03C0412C512CF3
:10E550003201833051F38111EDCF04E210E02DE060
:10E5600030E0B301A201CE0101967BD38111DDCF52
:10E570002A853B8540E050E02115310541055105D4
:10E5800021F4288D398D4A8D5B8DAC81B0E019D78F
:10E590006B017C018A819B81AC0160E070E0440EDC
:10E5A000551E661E771ED5011A964D925D926D928C
:10E5B0007C921D97E9811296EC9312972D813E81F2
:10E5C00015963C932E9314978F819885A0E0B0E028
:10E5D0000097A105B10521F48C899D89AE89BF8979
:10E5E000490114E0969487941A95E1F7840120E09C
:10E5F00030E00DA31EA32FA338A78C019D01041B9F
:10E60000150B260B370BC901B8016C197D098E0952
:10E610009F090DA11EA12FA138A5601B710B820BB4
:10E62000930B2E2F30E040E050E0D5D62E5F3F4FC9
:10E630004F4F5F4FD50116962D933D934D935C93AD
:10E640001997273FBFE03B074105510538F0273FA9
:10E650003F4F4105510520F482E003C081E001C035
:10E6600083E0D5018C93833029F488A199A1AAA1D4
:10E67000BBA106C0D701C601840D951DA61DB71DFF
:10E68000F50186879787A08BB18B0DA11EA12FA1C5
:10E6900038A5400E511E621E731E4C0C5D1C6E1C74
:10E6A0007F1C428A538A648A758A1182B0920F0253
:10E6B000A0920E0280E001C082E0A896E0E1CBC605
:10E6C000ACE3B0E0E5E6F3EFADC6C0900E02D0904B
:10E6D0000F02C114D10409F420C1D60111961C9275
:10E6E0009E012F5C3F4F3CA32BA39C017901F901B4
:10E6F00080812F5F3F4F8032C9F38F3209F4790157
:10E700001DA21EA21FA218A6D7018C91813240F42F
:10E71000CE01819690DD1982882309F4D4C022C1EC
:10E72000A0E27A2E4E01BCE08B0E911CEBA1FCA165
:10E73000DF01CF010B96A817B90711F07D92FBCF2F
:10E7400090E080E028E031E0380FD701A80FB11D3C
:10E750008C91813298F08F3289F08E3209F4E1C0C9
:10E76000921760F44FE9480F4A3108F48052DF01F4
:10E77000A90FB11D8C939F5F832FE5CFE30EF11C92
:10E7800091E0813208F090E09387CE01819653DDCD
:10E7900081118BC029A13AA12F703327F5E0220FF8
:10E7A000331FFA95E1F74DA55EA56FA578A900E2A4
:10E7B00010E0CE01019655D28111D1C08981882304
:10E7C00009F476C02C8523FD0FC06BA17CA1FE014E
:10E7D0003196CB01E815F90509F471C04191DC01CE
:10E7E0003D91CD014317B1F3A0900E02B0900F02FE
:10E7F00009A11AA10F5F1F4F0115110509F454C09B
:10E800008DA59EA5AFA5B8A90097A105B10509F4EE
:10E810004BC098012F703327232B09F042C001967B
:10E82000A11DB11D8DA79EA7AFA7B8AB69A57AA5FD
:10E830008BA59CA5611571058105910539F4F5013C
:10E84000848195810817190778F52BC0D501129698
:10E850002C91422F50E0415051099801E4E0369547
:10E860002795EA95E1F742235323452BD1F427DD81
:10E87000623071058105910508F459C0F5012681C2
:10E88000378140855185621773078407950760F4C7
:10E8900069A77AA78BA79CA7A3DC6DA77EA78FA7E4
:10E8A00098AB1AA309A376CF83E0833009F05AC04E
:10E8B000EBA1FCA18385882309F453C030C0FB0180
:10E8C00083858823B1F18981882349F18C8584FD72
:10E8D00026C08D899E89A0E0B0E0DC0199278827B9
:10E8E0004B8D5C8D60E070E0842B952BA62BB72BB5
:10E8F000F601868F978FA0A3B1A38D8D9E8DAF8DCE
:10E90000B8A1828F938FA48FB58F168A178A108E25
:10E91000118E81E0818380E025C086E023C083E002
:10E9200021C0283009F02ACF98E02BE025CF81E0E4
:10E93000BCCF24FF16C08D899E89A0E0B0E0DC0129
:10E94000992788274B8D5C8D60E070E0842B952B98
:10E95000A62BB72B8DA39EA3AFA3B8A7E7CE81E0CC
:10E9600001C084E0EC96EDE079C5A0E0B0E0EAEB10
:10E97000F4EF55C54C017B015A01C0910E02D091B4
:10E980000F02FA0111821082209709F49EC089813A
:10E9900080FF9DC08A8D9B8DAC8DBD8D4E895F891A
:10E9A000688D798D841B950BA60BB70BA70160E0D2
:10E9B00070E084179507A607B70708F47C013401B7
:10E9C000412C32E0532EE114F10409F479C08E8910
:10E9D0009F89A88DB98DAC01BD015170662777273D
:10E9E000452B462B472BD1F5DA80DA94AC01BD01DB
:10E9F00029E076956795579547952A95D1F7D422C2
:10EA0000C1F4892B8A2B8B2B29F46E8D7F8D88A1E5
:10EA100099A105C06AA17BA18CA19DA150DC6230A7
:10EA200071058105910508F44DC06AA37BA38CA3F1
:10EA30009DA36AA17BA18CA19DA1D2DB611571056B
:10EA40008105910509F43EC0DC01CB018D0D911DBE
:10EA5000A11DB11D8EA39FA3A8A7B9A72E893F8989
:10EA60003170C201821B930B67018E159F0508F45C
:10EA70006C014EA15FA168A579A58114910419F4D8
:10EA800080E090E001C0C3018601EBD081111AC083
:10EA90008E899F89A88DB98D8C0D9D1DA11DB11DDD
:10EAA0008E8B9F8BA88FB98F6C0C7D1CEC18FD088A
:10EAB000F501808191818C0D9D1D9183808383CF91
:10EAC00080E006C0198281E003C086E001C085E0D5
:10EAD000CDB7DEB7E0E1BFC4FF920F931F93CF9392
:10EAE000DF93C82FD42F152F062FF72E87FF08C0CE
:10EAF00040E050E0BA0187E7EFDF8230E0F4CF7703
:10EB00000FD18C2F12D18F2D10D1802F0ED1812FAC
:10EB10000CD18D2F0AD1C03421F0C83421F081E00E
:10EB200003C085E901C087E800D1CAE0FDD087FFB6
:10EB300002C0C150D9F7CDB7DEB7E5E097C4A4E075
:10EB4000B0E0E4EAF5EF75C4DED014E6E1D0115090
:10EB5000E9F71AE0E8D01150E9F740E050E0BA01D7
:10EB600080E4BADF813009F056C04AEA51E060E043
:10EB700070E088E4B1DF813039F57E0185E0E80E90
:10EB8000F11C8E010F5F1F4FCFD0F80181938F01D1
:10EB9000EE15FF05C9F78B81813009F03CC08C81EF
:10EBA0008A3A09F038C000E117E240E050E060E046
:10EBB00070E489EE91DF8823B9F1AAD001501109E0
:10EBC0000115110591F727C040E050E0BA0189EE28
:10EBD00083DF823028F422E0F22E39EEE32E04C0E7
:10EBE000FF24F39491E4E92E00E117E240E050E0C5
:10EBF000BA018E2D71DF882339F08AD001501109B6
:10EC00000115110599F707C040E052E060E070E09F
:10EC100080E562DF8111F12CF092100284D081E056
:10EC2000FF20E1F080E01AC040E050E0BA018AE73E
:10EC300053DF8111F0CF8E010F5F1F4F75D0F801A8
:10EC400081938F01EE15FF05C9F7898186FF03C007
:10EC50004CE0F42EE1CF84E0F82EDECF2496E6E0FF
:10EC600004C4A1E0B0E0E6E3F6EFDFC3D82EC92E7E
:10EC700079018091100283FD07C0E9E0440F551F20
:10EC8000661F771FEA95D1F781E526DF882311F00B
:10EC900081E033C060E4A62E6CE9B62E45D08F3FEC
:10ECA00039F481E0A81AB108A114B104B9F7F0CF82
:10ECB0008E3F71F752E0A52EBA2CA01AB10AAE18F9
:10ECC000BF08E114F10419F4ED2CFC2C05C02CD084
:10ECD000E1E0EE1AF108F5CF27D0F70181937F012B
:10ECE0000150110901151105B9F71ED0F1E0AF1A55
:10ECF000B108A114B104C9F780E0898314D08981D7
:10ED00002196EAE0AEC39D9A229A219A2B9A089501
:10ED100080EA31973197319700008A95D1F70895AD
:10ED200002D0A59801C0A59A8FEF98E087FD2A9A96
:10ED300087FF2A98880F1B998395299A29989A9575
:10ED4000A9F70895FB018BBF83E080935700E895F6
:10ED50008091570080FDFCCF81E180935700E895BA
:10ED600008950F921F928BBFFB01DA0190E80D907E
:10ED70001D9081E080935700E89532969A95B9F7F7
:10ED8000FB0185E080935700E8958091570080FD56
:10ED9000FCCF81E180935700E8951F900F90089574
:10EDA000A5E2B1E0E5EDF6EF38C301E20EBF0FEFEB
:10EDB0000DBF14B7F894A89514BE809160008861C7
:10EDC00080936000109260007894CDD913FF05C045
:10EDD000E0910C02F0910D020995279A2F9A8091EB
:10EDE000C00082608093C00080E18093C40088E10D
:10EDF0008093C1000000C12CD12C760187EC882EB5
:10EE00008BE1982EA12CB12C00E010E08091C00085
:10EE100087FF07C0A8014F5F5F4F41155105A1F360
:10EE200025C001151105B1F725E02A95F1F700007D
:10EE30004FEFC41AD40AE40AF40A91E080E0A1E298
:10EE4000CA16AEE4DA06E104F10408F490E0092FF2
:10EE5000182FC701B601A5019401BDD2672B682BFD
:10EE6000692BA1F685B1805885B9D0CF41305105C5
:10EE700009F08AC2C25EDE4F1882CE51D140912C79
:10EE8000212C312C412C512C3201C12CD12C76015A
:10EE90006BBEF20187919691CD5DDE4F9983888399
:10EEA000C352D14020E030E060E041305105E9F04C
:10EEB00080E090E0DC014091C00047FD16C0019663
:10EEC000A11DB11D8130E2E19E07EAE7AE07B10561
:10EED00090F3CD5DDE4F88819981C352D140019678
:10EEE00039F3EE27FF270994E3CF4091C600633042
:10EEF00001F120F4613071F038F014C0653029F16F
:10EF0000E0F0663091F17CC04B3109F451C240E031
:10EF100050E0CBCF9426C25EDE4F4883CE51D14025
:10EF200062E0F5CF242F30E0322F2227942663E0D1
:10EF3000EECF242B942664E0EACF4E3009F03FC296
:10EF40009426212C312C65E0E2CFC1010196E1E04D
:10EF5000F0E0EC0FFD1FE20DF31D408394268217B5
:10EF6000930709F429C21C01D2CF491128C2898113
:10EF7000833109F4E3C060F5863009F4CCC000F5B4
:10EF8000823009F441C0833009F46BC0813009F04C
:10EF9000A9C11A8288E08B8381E48C8386E58D8306
:10EFA00082E58E8389E48F8383E5888780E589877E
:10EFB0008FE58A8782E38B87812C0BE010E097C175
:10EFC000813109F45BC008F09DC08031E9F08AC14D
:10EFD000883109F46FC048F4853109F4AFC008F4F2
:10EFE00031C1863109F42EC17DC18A3109F455C081
:10EFF00008F476C08B3109F445C08D3139F072C107
:10F00000673009F4B4CF83CF812C3AC08D8180332F
:10F0100039F49F819923B1F09130B1F497E917C089
:10F02000982F907599F0803521F499E0E0E0F0E0B8
:10F0300005C0883559F4E3E0F0E099E0909357007B
:10F04000949105C09EE103C093E001C090E01A8254
:10F050001B828C831D829E831F82812C07E010E01F
:10F0600046C1EA81E059E33028F4F0E0E050FE4F79
:10F07000808101C080E01A828B8340C08824839401
:10F080001A8233C18D81882321F0813021F487E9F0
:10F0900024C08EE122C083E020C01A82E1E0F0E0CB
:10F0A00089E080935700E491EB831C82812C04E07B
:10F0B00010E01DC18B81803551F48C81883019F4AA
:10F0C000E2E0F0E006C089E0E0E0F0E003C0E3E069
:10F0D000F0E089E08093570084911A828B83E5CF1A
:10F0E0008D81836C99E0E1E0F0E0082E9093570069
:10F0F000E89507B600FCFDCF1A821B82812C03E045
:10F1000010E0F5C080EC8A83812C02E010E0412CF5
:10F11000512C3201ECC08A81CB80D12CE12CF12C16
:10F120007601DD24CC24F82A8D81C82A8C81D82A46
:10F13000CC0CDD1CEE1CFF1C1A82D6C00A8110E02C
:10F14000102F00279B81092B833109F046C0411401
:10F15000F0EC5F06F1E06F06710470F483E0F201F9
:10F1600060925B0080935700E89507B600FCFDCFE6
:10F170002FEF521A620A720A2B85B701A601CE013F
:10F180000B96BB24B394DC011296CD01FD0131979F
:10F19000E08130E03E2B0901FA0160935B00B09200
:10F1A0005700E89511244E5F5F4F6F4F7F4F02501D
:10F1B00011090115110511F02C91E5CF85E0F6013B
:10F1C000E0925B0080935700E89507B600FCFDCF06
:10F1D00081E180935700E89531C0D701C601B6950B
:10F1E000A79597958795C15EDE4F88839983AA83FB
:10F1F000BB83CF51D140DE011B964D01A12CB12C18
:10F20000A016B10681F0F40161914F01C15EDE4F9D
:10F2100088819981CF51D1408A0D9B1D53D1FFEF39
:10F22000AF1ABF0AEDCFA50160E070E0440F551F93
:10F23000661F771F4C0D5D1D6E1D7F1D1A826A01B2
:10F240007B0152C02A8130E0322F22279B81292B5B
:10F2500089010D5F1F4F1A828431B1F4DE011396CC
:10F26000EBBEF601879196918C931296FD01319732
:10F27000908342E0C40ED11CE11CF11C22503109E4
:10F280002115310569F72BC0CE0103965C014901B8
:10F29000D701C60181BD492F5A2F6B2F772742BD59
:10F2A0000196A11DB11DF89A40B5F50141935F018A
:10F2B000F1E08F1A91088114910461F7C901019757
:10F2C000A0E0B0E00196A11DB11DC80ED91EEA1E36
:10F2D000FB1EA3E0B0E0AC0FBD1FA20FB31F1C923A
:10F2E000812C05C080EC8A83812C02E010E08BE148
:10F2F0000E9498F0C25EDE4F8881CE51D1400E94BC
:10F3000098F0812F0E9498F0802F0E9498F08EE054
:10F310000E9498F095E1992EC25EDE4F2881CE5171
:10F32000D140922690269126CE0101965C01080FCD
:10F33000191FA016B10691F0F50191915F01892F77
:10F34000CB5DDE4F9883C552D1400E9498F0CB5DD3
:10F35000DE4F9881C552D1409926EBCF892D0E946E
:10F3600098F0C25EDE4F2881CE51D1402F5FC25E41
:10F37000DE4F2883CE51D14085B1805885B98110A8
:10F3800003C040E050E08ECD27982F9884E690E0AF
:10F390000E94A4F000008091C0008D7F8093C00087
:10F3A00081E180935700E895EE27FF270994FFCF6E
:10F3B0008BE1982E61E0ABCD190166E0A8CD60E04D
:10F3C000A6CD62D0A59F900DB49F900DA49F800DF7
:10F3D000911D11240895A1E21A2EAA1BBB1BFD0149
:10F3E0000DC0AA1FBB1FEE1FFF1FA217B307E40724
:10F3F000F50720F0A21BB30BE40BF50B661F771F7C
:10F40000881F991F1A9469F760957095809590955B
:10F410009B01AC01BD01CF0108952F923F924F9205
:10F420005F926F927F928F929F92AF92BF92CF9294
:10F43000DF92EF92FF920F931F93CF93DF93CDB79D
:10F44000DEB7CA1BDB0B0FB6F894DEBF0FBECDBF15
:10F4500009942A88398848885F846E847D848C84E6
:10F460009B84AA84B984C884DF80EE80FD800C81EF
:10F470001B81AA81B981CE0FD11D0FB6F894DEBFD2
:10F480000FBECDBFED010895A29FB001B39FC00193
:10F49000A39F700D811D1124911DB29F700D811DC0
:10F4A0001124911D0895DC0101C06D93415050401D
:10F4B000E0F70895F999FECF92BD81BDF89A99279A
:10F4C00080B50895262FF999FECF1FBA92BD81BD50
:10F4D00020BD0FB6F894FA9AF99A0FBE01960895D6
:04F4E000F894FFCFCE
:0CF4E4000F020A6170702E62696E000059
:040000031000E00009
:00000001FF
